:020000040800F2
:10400000540D002071BC0108BDBC0108C14200086C
:10401000BDBC0108BDBC0108BDBC0108000000001A
:10402000000000000000000000000000BDBC01080E
:10403000BDBC0108000000000342000835C20108B1
:10404000BDBC0108BDBC0108BDBC0108BDBC010868
:10405000BDBC0108BDBC0108C3CA0108D9CA01081A
:10406000EFCA010805CB01081BCB0108BDBC010844
:10407000BDBC0108BDBC0108BDBC0108BDBC010838
:10408000BDBC0108BDBC0108BDBC010800000000AA
:1040900000000000000000000000000031CB01081B
:1040A000BDBC0108BDBC0108BDBC0108BDBC010808
:1040B000BDBC0108BDBC0108BDBC0108BDBC0108F8
:1040C000BDBC0108BDBC0108BDBC0108BDBC0108E8
:1040D000BDBC0108A9D70108BDBC01080000000053
:1040E00063CB0108BDBC0108BDBC01080000000095
:1040F000000000000000000000000000BDBC01083E
:1041000000000000BDBC0108BDBC0108BDBC010829
:10411000000000000000000000000000000000009F
:10412000BDBC0108BDBC0108BDBC0108BDBC010887
:10413000BDBC0108000000000000000000000000FD
:10414000000000000000000000000000D5D80108B9
:10415000BDBC0108BDBC0108BDBC0108BDBC010857
:10416000BDBC0108BDBC010800000000000000004B
:10417000000000000000000000000000000000003F
:1041800000000000BDBC01080000000000000000AD
:10419000BDBC010810B5054C237833B9044B13B1ED
:1041A0000448AFF300800123237010BD540D00209C
:1041B000000000005845020808B5034B1BB1034935
:1041C0000348AFF3008008BD00000000580D002038
:1041D00058450208EFF3108072B6704780F31088DC
:1041E0007047464A1368012B04D04FF00103136057
:1041F000434A1060434A116043484FF080510160C8
:104200007047EFF3108272B63C48016851B34FF02B
:10421000000101603A48016891B1EFF309811EF095
:10422000100F08BF21ED108B21E9F00F4FF00004B3
:104230001EF0100F08BF012441F8044D0068016012
:1042400030490968096808C9B1E8F00F002B18BFA8
:10425000B1EC108B81F309884EF0100E002B18BFC3
:104260002EF0100E82F310884EF0040E7047254990
:104270000860EFF3148222F0040282F314882049CC
:104280004FF0000008601D494FF0010008601F4812
:104290001F49D0F8002041EA020101601A484FF09E
:1042A000805101601B480068006800BF80F30888E7
:1042B00061B662B6BFF34F8FBFF36F8F704700BF19
:1042C000EFF308801EF0040F01D0EFF3098020E91E
:1042D000F00F40F804ED40F804ED1EF0040F02D09A
:1042E00080F3098801E080F3088800B506F076FACB
:1042F0005DF804EB4EF0040E704700004C140020F3
:10430000441400204814002004ED00E020ED00E0FB
:104310000000FFFF08ED00E0844641EA000313F0CF
:1043200003036DD1403A41D351F8043B40F8043BBC
:1043300051F8043B40F8043B51F8043B40F8043B7F
:1043400051F8043B40F8043B51F8043B40F8043B6F
:1043500051F8043B40F8043B51F8043B40F8043B5F
:1043600051F8043B40F8043B51F8043B40F8043B4F
:1043700051F8043B40F8043B51F8043B40F8043B3F
:1043800051F8043B40F8043B51F8043B40F8043B2F
:1043900051F8043B40F8043B51F8043B40F8043B1F
:1043A00051F8043B40F8043B403ABDD2303211D3BF
:1043B00051F8043B40F8043B51F8043B40F8043BFF
:1043C00051F8043B40F8043B51F8043B40F8043BEF
:1043D000103AEDD20C3205D351F8043B40F8043BBF
:1043E000043AF9D2043208D0D2071CBF11F8013BBD
:1043F00000F8013B01D30B8803806046704700BF83
:10440000082A13D38B078DD010F003038AD0C3F191
:104410000403D21ADB071CBF11F8013B00F8013B73
:1044200080D331F8023B20F8023B7BE7043AD9D332
:10443000013A11F8013B00F8013BF9D20B78037007
:104440004B7843708B7883706046704700000000A3
:10445000000000000000000000000000000000005C
:10446000A2EB0300704700BF02780B78012A28BF37
:104470009A42F5D16DE9044540EA0104CDE90267AD
:104480006FF0000C4FEA447212B380EA010414F09A
:10449000070F6AD100F0070420F0070004F00305BD
:1044A00021F007014FEAC505F0E8042314F0040FDA
:1044B000F1E804670CFA05F462EA040266EA04060D
:1044C0000AD063EA0403624667EA0407664603E02B
:1044D000F0E80423F1E8046782FA4CF582EA060466
:1044E000A4FA8CF46CBB83FA4CF583EA0705A5FAB1
:1044F0008CF595B950E9022351E9026782FA4CF52F
:1045000082EA0604A4FA8CF483FA4CF583EA0705E0
:10451000A5FA8CF52543DBD09CB92DBAB5FA85F404
:1045200024F0070427FA04F1DDE9026723FA04F313
:1045300003F0FF0001F0FF01FDE80445A0EB0100DE
:10454000704724BAB4FA84F424F0070426FA04F17C
:10455000DDE9026722FA04F202F0FF0001F0FF0138
:10456000FDE80445A0EB0100704714F0030F3CD1B7
:1045700010F0030428D150F8082B51F8083B82FAB8
:104580004CF582EA0305A5FA8CF55DB950F8042CC8
:1045900051F8043C82FA4CF582EA0305A5FA8CF541
:1045A000002DE8D02DBAB5FA85F424F0070423FADB
:1045B00004F122FA04F202F0FF0001F0FF01FDE82D
:1045C0000445A0EB010070474FEAC40420F003004B
:1045D00050F8082B21F0030151F8083B0CFA04F4C1
:1045E00062EA040263EA0403C9E710F003041AD084
:1045F000A1EB040120F00300E40750F8042B06D0DF
:104600000FD28B785FFAA2F4E41A06D12BB1CB78E3
:104610005FFAB2F4E41A00D11BB920465DF8104BE2
:10462000704701F1040150F8042BCC0721F003017D
:1046300051F8043B48D824D222F07F4482FA4CF54A
:1046400094EA1325A5FA8CF50AD165B951F8043B13
:1046500084EA0204B4EB036F0ED150F8042BEBE7AD
:104660004FEA132355E035F07F454DD10878FDE83A
:104670000445C0F1000070474FEA126203F0FF03E7
:1046800047E002EA1C4482FA4CF594EA1345A5FA85
:104690008CF50AD165B951F8043B84EA0204B4EB05
:1046A000034F0CD150F8042BEBE74FEA134330E0F3
:1046B00015EA1C4528D10B884FEA124229E04FEA3F
:1046C000124203EA1C4324E002F0FF0482FA4CF594
:1046D00094EA1365A5FA8CF50AD165B951F8043B43
:1046E00084EA0204B4EB032F09D150F8042BEBE762
:1046F0004FEA13630DE015F0FF0F05D10B684FEA89
:10470000122223F07F4304E04FF00000FDE804454F
:10471000704712BA1BBA82FA4CF482EA0304A4FA74
:104720008CF5B5FA85F402FA04F203FA04F34FEAC1
:104730001260FDE80445A0EB136070470000000024
:1047400090F800F06DE9024520F007016FF0000CD1
:1047500010F0070491F820F040F049804FF0000479
:104760006FF00700D1E9002391F840F000F1080054
:1047700082FA4CF2A4FA8CF283FA4CF3A2FA8CF38C
:104780004BBBD1E9022382FA4CF200F10800A4FAF3
:104790008CF283FA4CF3A2FA8CF3E3B9D1E9042347
:1047A00082FA4CF200F10800A4FA8CF283FA4CF37E
:1047B000A2FA8CF37BB9D1E9062301F1200182FA38
:1047C0004CF200F10800A4FA8CF283FA4CF3A2FA3E
:1047D0008CF3002BC6D0002A04BF04301A4612BA4C
:1047E000B2FA82F2FDE8024500EBD2007047D1E94F
:1047F000002304F00305C4F100004FEAC50514F0DE
:10480000040F91F840F00CFA05F562EA05021CBFAE
:1048100063EA050362464FF00004A9E781F0004116
:1048200002E000BF83F0004330B54FEA41044FEA95
:10483000430594EA050F08BF90EA020F1FBF54EA30
:10484000000C55EA020C7FEA645C7FEA655C00F0CC
:10485000E2804FEA5454D4EB5555B8BF6D420CDD9D
:104860002C4480EA020281EA030382EA000083EA20
:10487000010180EA020281EA0303362D88BF30BDC0
:1048800011F0004F4FEA01314FF4801C4CEA113116
:1048900002D0404261EB410113F0004F4FEA033375
:1048A0004CEA133302D0524263EB430394EA050F00
:1048B00000F0A780A4F10104D5F1200E0DDB02FA6F
:1048C0000EFC22FA05F2801841F1000103FA0EF203
:1048D000801843FA05F359410EE0A5F120050EF1C9
:1048E000200E012A03FA0EFC28BF4CF0020C43FAFA
:1048F00005F3C01851EBE37101F0004507D54FF007
:10490000000EDCF1000C7EEB00006EEB0101B1F556
:10491000801F1BD3B1F5001F0CD349085FEA30009C
:104920004FEA3C0C04F101044FEA445212F5800FA7
:1049300080F09A80BCF1004F08BF5FEA500C50F144
:10494000000041EB045141EA050130BD5FEA4C0C27
:10495000404141EB0101013C28BFB1F5801FE9D284
:1049600091F0000F04BF01460020B1FA81F308BFA7
:104970002033A3F10B03B3F120020CDA0C3208DD73
:1049800002F1140CC2F10C0201FA0CF021FA02F14E
:104990000CE002F11402D8BFC2F1200C01FA02F1BE
:1049A00020FA0CFCDCBF41EA0C019040E41AA2BFE3
:1049B00001EB0451294330BD6FEA04041F3C1CDAAB
:1049C0000C340EDC04F11404C4F1200220FA04F0CB
:1049D00001FA02F340EA030021FA04F345EA030175
:1049E00030BDC4F10C04C4F1200220FA02F001FA37
:1049F00004F340EA0300294630BD21FA04F02946B9
:104A000030BD94F0000F83F4801306BF81F4801151
:104A10000134013D4EE77FEA645C18BF7FEA655CC4
:104A200029D094EA050F08BF90EA020F05D054EA96
:104A3000000C04BF1946104630BD91EA030F1EBF9B
:104A40000021002030BD5FEA545C05D1400049419F
:104A500028BF41F0004130BD14F580043CBF01F592
:104A6000801130BD01F0004545F0FE4141F4700178
:104A70004FF0000030BD7FEA645C1ABF1946104653
:104A80007FEA655C1CBF0B46024650EA013406BF54
:104A900052EA033591EA030F41F4002130BD00BF13
:104AA00090F0000F04BF0021704730B54FF48064D0
:104AB00004F132044FF000054FF0000150E700BF51
:104AC00090F0000F04BF0021704730B54FF48064B0
:104AD00004F1320410F0004548BF40424FF000019D
:104AE0003EE700BF42004FEAE2014FEA31014FEAE0
:104AF00002701FBF12F07F4393F07F4F81F060512F
:104B0000704732F07F4208BF704793F07F4F04BF79
:104B100041F40021704730B54FF4607401F0004556
:104B200021F000411CE700BF50EA010208BF7047B6
:104B300030B54FF000050AE050EA010208BF7047A7
:104B400030B511F0004502D5404261EB41014FF410
:104B5000806404F132045FEA915C3FF4D8AE4FF018
:104B600003025FEADC0C18BF03325FEADC0C18BFFB
:104B7000033202EBDC02C2F1200300FA03FC20FA4C
:104B800002F001FA03FE40EA0E0021FA02F1144499
:104B9000BDE600BF70B54FF0FF0C4CF4E06C1CEAB2
:104BA00011541DBF1CEA135594EA0C0F95EA0C0F23
:104BB00000F0DEF82C4481EA030621EA4C5123EA96
:104BC0004C5350EA013518BF52EA033541F48011C5
:104BD00043F4801338D0A0FB02CE4FF00005E1FB78
:104BE00002E506F00042E0FB03E54FF00006E1FBC2
:104BF00003569CF0000F18BF4EF0010EA4F1FF0405
:104C0000B6F5007F64F5407404D25FEA4E0E6D4144
:104C100046EB060642EAC62141EA55514FEAC52055
:104C200040EA5E504FEACE2EB4F1FD0C88BFBCF5D1
:104C3000E06F1ED8BEF1004F08BF5FEA500E50F182
:104C4000000041EB045170BD06F0004646EA010148
:104C500040EA020081EA0301B4EB5C04C2BFD4EB7A
:104C60000C0541EA045170BD41F480114FF0000E73
:104C7000013C00F3AB8014F1360FDEBF002001F0E1
:104C8000004170BDC4F10004203C35DA0C341BDC5B
:104C900004F11404C4F1200500FA05F320FA04F02D
:104CA00001FA05F240EA020001F0004221F0004161
:104CB00010EBD37021FA04F642EB06015EEA430ED4
:104CC00008BF20EAD37070BDC4F10C04C4F1200504
:104CD00000FA04F320FA05F001FA04F240EA0200B7
:104CE00001F0004110EBD37041F100015EEA430E88
:104CF00008BF20EAD37070BDC4F1200500FA05F2A8
:104D00004EEA020E20FA04F301FA05F243EA020326
:104D100021FA04F001F0004121FA04F220EA020035
:104D200000EBD3705EEA430E08BF20EAD37070BD7B
:104D300094F0000F0FD101F00046400041EB01015B
:104D400011F4801F08BF013CF7D041EA060195F03D
:104D5000000F18BF704703F00046520043EB0303F7
:104D600013F4801F08BF013DF7D043EA06037047E4
:104D700094EA0C0F0CEA135518BF95EA0C0F0CD0EF
:104D800050EA410618BF52EA4306D1D181EA030135
:104D900001F000414FF0000070BD50EA410606BF2F
:104DA0001046194652EA430619D094EA0C0F02D174
:104DB00050EA013613D195EA0C0F05D152EA0336B9
:104DC0001CBF104619460AD181EA030101F00041D7
:104DD00041F0FE4141F470014FF0000070BD41F020
:104DE000FE4141F4780170BD70B54FF0FF0C4CF4FA
:104DF000E06C1CEA11541DBF1CEA135594EA0C0F19
:104E000095EA0C0F00F0A7F8A4EB050481EA030E65
:104E100052EA03354FEA013100F088804FEA03334C
:104E20004FF0805545EA131343EA12634FEA02221A
:104E300045EA111545EA10654FEA00260EF00041DB
:104E40009D4208BF964244F1FD0404F5407402D22D
:104E50005B084FEA3202B61A65EB03055B084FEABE
:104E600032024FF480104FF4002CB6EB020E75EBBB
:104E7000030E22BFB61A754640EA0C005B084FEAE3
:104E80003202B6EB020E75EB030E22BFB61A754660
:104E900040EA5C005B084FEA3202B6EB020E75EBAB
:104EA000030E22BFB61A754640EA9C005B084FEA23
:104EB0003202B6EB020E75EB030E22BFB61A754630
:104EC00040EADC0055EA060E18D04FEA051545EA1F
:104ED00016754FEA06164FEAC30343EA52734FEAC8
:104EE000C2025FEA1C1CC0D111F4801F0BD141EA41
:104EF00000014FF000004FF0004CB6E711F4801FA6
:104F000004BF01430020B4F1FD0C88BFBCF5E06F85
:104F10003FF6AFAEB5EB030C04BFB6EB020C5FEA95
:104F2000500C50F1000041EB045170BD0EF0004EEA
:104F30004EEA113114EB5C04C2BFD4EB0C0541EA1C
:104F4000045170BD41F480114FF0000E013C90E619
:104F500045EA060E8DE60CEA135594EA0C0F08BFDD
:104F600095EA0C0F3FF43BAF94EA0C0F0AD150EADC
:104F700001347FF434AF95EA0C0F7FF425AF10466F
:104F800019462CE795EA0C0F06D152EA03353FF497
:104F9000FDAE1046194622E750EA410618BF52EA14
:104FA00043067FF4C5AE50EA41047FF40DAF52EAE8
:104FB00043057FF4EBAE12E74FEA4102B2F1E04362
:104FC00024BFB3F5001CDCF1FE5C0DD901F0004CF0
:104FD0004FEAC0024CEA5070B2F1004F40EB830040
:104FE00008BF20F00100704711F0804F21D113F16C
:104FF0003872BCBF01F00040704741F480114FEAA5
:105000005252C2F11802C2F1200C10FA0CF320FA2D
:1050100002F018BF40F001004FEAC1234FEAD3234A
:1050200003FA0CFC40EA0C0023FA02F34FEA4303B4
:10503000CCE77FEA625307D150EA01331EBF4FF03D
:10504000FE4040F44000704701F0004040F0FE4058
:1050500040F40000704700BF53B94AB9002908BFA7
:1050600000281CBF4FF0FF314FF0FF3000F074B943
:10507000ADF1080C6DE904CE00F006F8DDF804E0AF
:10508000DDE9022304B070472DE9F047089D04468E
:105090008E46002B4DD18A42944669D9B2FA82F2EB
:1050A00052B101FA02F3C2F1200120FA01F10CFA27
:1050B00002FC41EA030E94404FEA1C48210CBEFB5F
:1050C000F8F61FFA8CF708FB16E341EA034306FBE8
:1050D00007F199420AD91CEB030306F1FF3080F077
:1050E0001F81994240F21C81023E63445B1AA4B2C4
:1050F000B3FBF8F008FB103344EA034400FB07F766
:10510000A7420AD91CEB040400F1FF3380F00A81A6
:10511000A74240F207816444023840EA0640E41B9B
:1051200000261DB1D4400023C5E900433146BDE847
:10513000F0878B4209D9002D00F0EF800026C5E9E9
:10514000000130463146BDE8F087B3FA83F6002E01
:105150004AD18B4202D3824200F2F980841A61EB79
:10516000030301209E46002DE0D0C5E9004EDDE797
:1051700002B9FFDEB2FA82F2002A40F09280A1EB7F
:105180000C014FEA1C471FFA8CFE0126200CB1FBD4
:10519000F7F307FB131140EA01410EFB03F08842CD
:1051A00008D91CEB010103F1FF3802D2884200F25A
:1051B000CB804346091AA4B2B1FBF7F007FB1011EC
:1051C00044EA01440EFB00FEA64508D91CEB04048A
:1051D00000F1FF3102D2A64500F2BB800846A4EBE5
:1051E0000E0440EA03409CE7C6F12007B34022FAD0
:1051F00007FC4CEA030C20FA07F401FA06F31C43FF
:10520000F9404FEA1C4900FA06F3B1FBF9F8200C0B
:105210001FFA8CFE09FB181140EA014108FB0EF051
:10522000884202FA06F20BD91CEB010108F1FF3AA1
:1052300080F08880884240F28580A8F102086144AD
:10524000091AA4B2B1FBF9F009FB101144EA0141BB
:1052500000FB0EFE8E4508D91CEB010100F1FF3466
:105260006CD28E456AD90238614440EA0840A0FBFE
:105270000294A1EB0E01A142C846A64656D353D0D4
:105280005DB1B3EB080261EB0E0101FA07F722FAF8
:1052900006F3F1401F43C5E9007100263146BDE821
:1052A000F087C2F12003D8400CFA02FC21FA03F384
:1052B000914001434FEA1C471FFA8CFEB3FBF7F005
:1052C00007FB10360B0C43EA064300FB0EF69E422A
:1052D00004FA02F408D91CEB030300F1FF382FD2C3
:1052E0009E422DD9023863449B1B89B2B3FBF7F66B
:1052F00007FB163341EA034106FB0EF38B4208D944
:105300001CEB010106F1FF3816D28B4214D9023E84
:105310006144C91A46EA004638E72E46284605E7A2
:105320000646E3E61846F8E64B45A9D2B9EB020873
:1053300064EB0C0E0138A3E74646EAE7204694E703
:105340004046D1E7D0467BE7023B614432E7304636
:1053500009E76444023842E7704700BF80B400AFF9
:10536000034B1B681846BD465DF8047B704700BFC1
:10537000700D002080B582B000AF1B4B1B68002B66
:1053800002D0194B1B689847FEF724FF7860174B33
:105390001B680133154A136003F0ECFF38603B686B
:1053A0005B6D5A1E3B685A653B685B6D002B12D1E2
:1053B0003B681A6D3B685A653B6893F8343043F09C
:1053C0000803DAB23B6883F834207868FEF706FFFA
:1053D00003F0B4FC02E07868FEF700FF04F0CAFEB8
:1053E00000BF0837BD4680BD740D0020700D002041
:1053F00080B485B000AF78607B68002B03DA4FF093
:10540000FF33FB6027E07B68164A82FB0312921190
:10541000DB17D31A4FF47A7202FB03F3FB607A684E
:10542000104B83FB02139911D317CB1A4FF47A71E7
:1054300001FB03F3D31A4FF47A7202FB03F303F276
:10544000E733084A82FB03129211DB17D31A1A467C
:10545000FB681344FB60FB6818461437BD465DF8D3
:10546000047B7047D34D621080B400AF0023184610
:10547000BD465DF8047B704780B400AF002318463A
:10548000BD465DF8047B704780B400AF002318462A
:10549000BD465DF8047B704780B400AF002318461A
:1054A000BD465DF8047B704780B582B000AF094B04
:1054B0007B6005E07B681B6898477B6804337B60F2
:1054C0007B68054A9342F5D300BF00BF0837BD464D
:1054D00080BD00BF204502083445020880B582B077
:1054E00000AF094B7B6005E07B681B6898477B68D1
:1054F00004337B607B68054A9342F5D300BF00BF4D
:105500000837BD4680BD00BF344502084445020847
:1055100080B500AF00F036F80023184680BD80B596
:1055200082B000AF7860FFF7D9FF19F06BFB00BFC6
:105530000837BD4680BD000080B584B002AF14239B
:1055400001930A2300934FF40063002209490A489B
:1055500003F0D4FF78607B68002B04D1D622074982
:10556000074802F0B5FD786803F010FF00BF083768
:10557000BD4680BD1F5500081CF50108682D0208B6
:1055800024F5010880B500AFFEF724FE16F0D0FB2D
:1055900001F026FF04F02EFF03F08EFBFFF7CCFF97
:1055A00004F042FF00F0B6F803F0AAFB002318460F
:1055B00080BD80B483B000AF786039607B681B68C1
:1055C0003A685A607B681A683B681A607B683A6878
:1055D0001A603B687A685A6000BF0C37BD465DF8B8
:1055E000047B704780B483B000AF78607B681B6831
:1055F0007A6852685A607B685B687A6812681A60D9
:105600007B687A685A607B685A687B681A6000BF5A
:105610000C37BD465DF8047B7047000080B582B052
:1056200000AF78607B68143319460348FFF7C1FF69
:1056300000BF0837BD4680BD0000002080B584B0A3
:1056400000AF0023FB600D4BBB60BB681B68BA68F2
:105650009A420ED0BB681B68143BFB60FEF7BAFD94
:105660007860FB6814331846FFF7BCFF7868FEF7D4
:10567000B5FDFB6818461037BD4680BD0000002010
:1056800080B584B000AFFFF7D9FFF860FB68002B4E
:105690001FD0FB68D3F88430BB60F86803F0A2F930
:1056A00078607B68012B02D1F86803F0C3F8BB680F
:1056B000002B02D0BB68F86898477B68002BE2D1CA
:1056C000FB689B6A184602F0CDFCF86803F04CF9C1
:1056D000D9E700BF00BF1037BD4680BD80B584B09C
:1056E00000AF78600023FB600CE0094AFB6852F8C9
:1056F0002330BB60BB68002B01D0BB689847FB68B8
:105700000133FB60FB68032BEFD9FFF7B9FFE9E733
:10571000040F002080B588B004AF0023FB6028E0B0
:10572000381DFB68174A082102F032FBFB688C2207
:1057300002FB03F3144A9818FB681B02134A134434
:10574000391D202203921F2202924FF4807201928F
:10575000009300230E4A03F0D5FDFB688C2202FB68
:1057600003F3094A1344184603F010FEFB680133A3
:10577000FB60FB68002BD3D000BF00BF1037BD46D5
:1057800080BD00BF34F50108780D0020040E002014
:10579000DD56000880B483B000AF78607B687A681B
:1057A0005A607B685A687B681A6000BF0C37BD4638
:1057B0005DF8047B704780B483B000AF78603960D7
:1057C0007B681B683A685A607B681A683B681A6095
:1057D0007B683A681A603B687A685A6000BF0C3789
:1057E000BD465DF8047B704780B483B000AF78603D
:1057F00039607B685B683A681A607B685A683B6806
:105800005A607B683A685A603B687A681A6000BFE1
:105810000C37BD465DF8047B704780B483B000AFA1
:1058200078607B681B687A6852685A607B685B683E
:105830007A6812681A607B687A685A607B685A686E
:105840007B681A6000BF0C37BD465DF8047B70476B
:1058500080B483B000AF78607B681B687A689A4236
:105860000CBF01230023DBB218460C37BD465DF8A0
:10587000047B704780B582B000AF78607B681433DA
:105880001846FFF787FF002318460837BD4680BD3E
:1058900080B588B000AFF860B9603B601346FB711B
:1058A000BB6893F8343003F00403002B09D1396846
:1058B000B86804F05BF8B861BB69002B01D0BB6924
:1058C0003FE0FB79002B02D0012B07D031E0BB6811
:1058D00014331946F868FFF787FF31E0FB681B684F
:1058E000FB6117E0FB69143B7B61BB6893F83520D3
:1058F0007B6993F835309A4209D27B6903F114022F
:10590000BB68143319461046FFF76EFF06E0FB69CB
:105910001B68FB61FA69FB689A42E3D1FA69FB688C
:105920009A420CD1BB6814331946F868FFF75CFF44
:1059300005E0B6220549064802F0CAFB00E000BFB8
:10594000002318462037BD4680BD00BF982D0208B1
:105950003CF5010880B584B000AF78607B681B68B7
:10596000143BFB60FB6800221A63F86804F06CF8D3
:10597000002318461037BD4680BD000080B584B0B6
:1059800000AFF860B9607A60FB70FB68002B05D14E
:1059900040F23F121749184802F09AFB7B68B3F5B2
:1059A000803F05D34FF4A0721249144802F090FBD7
:1059B000FB78002B08D0FB78012B05D040F2411278
:1059C0000C490F4802F084FBFB68BA6802211846B4
:1059D00002F0CEFEFB681846FFF74CFF7B689AB2D8
:1059E000FB689A83FB68FA785A72002318461037CE
:1059F000BD4680BD7C2D020840F5010850F5010828
:105A000064F5010880B58CB000AFF860B9607A60C9
:105A1000FB68002B05D140F2FD126649664802F092
:105A200057FBFB68184602F0FBFF0346022B05D02C
:105A30004FF4FF725F49614802F04AFB604B1B68FC
:105A4000002B04D05E4B1B68FA6810469847FB6831
:105A50009B8B002B51D1BB68002B4ED001F03CFB3F
:105A6000F862FEF7B7FBB86203F01CFB0346002B9D
:105A700009D05049534802F0E7F940F203224D495A
:105A8000514802F025FBFB6A012B09D149494F48D7
:105A900002F0DAF940F2032246494B4802F018FBC3
:105AA000FEF798FB786203F065FC0346002B09D1F2
:105AB0004049474802F0C8F940F203223D494248B4
:105AC00002F006FBFEF786FB386201F0F1FA0346AE
:105AD000002B09D037493F4802F0B6F940F20322C3
:105AE0003449394802F0F4FA386AFEF777FB786AED
:105AF000FEF774FBB86AFEF771FBFEF76BFBF8610B
:105B0000FB689B8B002B09D0FB689B8B013B9AB2F7
:105B1000FB689A83F869FEF761FB3DE0BB68002BE8
:105B200005D1F869FEF75AFB6FF073033EE003F00E
:105B300021FCB861BB696FF003021A63FB6803F1D3
:105B40001400FB685A7A7B68B969FFF7A1FE786197
:105B50007B69002B04D0F869FEF740FB7B6925E0E8
:105B6000BB68002B0CDDBB69583307F1080200212C
:105B7000184604F069FABB695833184604F002F974
:105B8000F869FEF72BFB03F0D9F8BB691B6B002B00
:105B900002D0BB691B6B09E00F4B1B68002B04D0C4
:105BA0000D4B1B68FA68104698470023184630379B
:105BB000BD4680BD882D020840F50108A0F501080A
:105BC0006C1000207CF601083CF50108A8F60108DD
:105BD000D0F6010818F601087010002080B582B0D8
:105BE00000AF78603960022239687868FFF70AFFF1
:105BF000034618460837BD4680BD000080B584B016
:105C000000AF78607B68002B05D140F28B222749DA
:105C1000274802F05DFA7B68184602F001FF034650
:105C2000022B05D04FF423722049224802F050FA8B
:105C3000214B1B68002B04D01F4B1B687A68104651
:105C400098470023FB60FEF7C5FAB8607B68143301
:105C50001846FFF7FDFD0346002B07D17B68143380
:105C60001846FFF777FE0123FB6012E07B689B8BF1
:105C70004FF6FF72934206D07B689B8B01339AB23A
:105C80007B689A8305E0B868FEF7A8FA6FF01B03FB
:105C900008E0B868FEF7A2FAFB68012B01D103F017
:105CA0004DF8002318461037BD4680BDAC2D0208C4
:105CB00040F50108A0F501087410002080B584B0FB
:105CC00000AF78607B6814331846FFF7C1FD0346C8
:105CD000002B09D17B685B69143BFB60FB6893F880
:105CE00035207B685A7702E07B68FF225A777B6811
:105CF0005B7F18461037BD4680BD80B487B000AFCB
:105D0000786000237B610023FB607B6893F836306A
:105D1000FB747B68DB6B7B6115E07B69243BFB607C
:105D2000FB685B7FFB72FB681B7FFA7A934228BF9C
:105D30001346FB72FA7CFB7A9A4201D9FB7AFB7418
:105D40007B691B687B617B683C337A699A42E4D14A
:105D5000FB7C18461C37BD465DF8047B704780B558
:105D600088B000AFF8600B467A60FB726FF0FE03FC
:105D7000FB610023BB6107F10B031A460221F8689F
:105D800003F02EFDF86145E0FB685B6CBB61BB690D
:105D9000002B3CD0B86902F043FE0346032B36D1FA
:105DA000FF23FB74BB697B61FB6814331846FFF764
:105DB00034FD7B6903F114007B695A7A7B68F968CA
:105DC000FFF766FDF861FB69002B23D17869FFF7C7
:105DD00075FF7B691B6A1846FFF78FFF0346FB744C
:105DE0007B691B6A93F83520FB7C9A420BD07B6958
:105DF0001B6AFB6007F113031A460221F86803F0DF
:105E0000EFFCF86106E06FF0FE03FB6102E06FF06B
:105E1000FE03FB61FB69002B06D1FB6893F834306D
:105E200003F00403002BAFD100BF2037BD4680BD77
:105E300080B584B000AFF860B9601346FB71FB68B1
:105E4000002B05D140F271321349144802F040F999
:105E5000FB68BA680321184602F08AFCFB68184602
:105E6000FFF708FDFB6800221A62FB68FF225A77E1
:105E7000FB6800229A77FB68FF221A77FB682433BD
:105E80001846FFF787FCFB6801225A720023184668
:105E90001037BD4680BD00BFBC2D020808F70108C1
:105EA00080B586B000AF7860396000237B613B68C5
:105EB00014331846FFF7B1FC7B681B6A002B0AD02D
:105EC0007B681B6A93F835203B6893F835309A421B
:105ED00001D101237B617B6814331846FFF7B8FCBE
:105EE0000346002B09D17B685B69143B3B613B692E
:105EF00093F835207B685A7702E07B68FF225A7757
:105F00007B69002B14D07B681B6A1846FFF7F5FEEF
:105F10000346FB737B681B6A93F83530FA7B9A4221
:105F200006D07B681B6AF97B02221846FFF717FF31
:105F300000BF1837BD4680BD80B58EB000AFF86099
:105F4000B9607A6001F0C8F8F862FEF743F9B86208
:105F500003F0A8F80346002B09D09449944801F0B7
:105F600073FF40F29F429149924802F0B1F8FB6AF8
:105F7000012B09D18D49904801F066FF40F29F4204
:105F80008A498C4802F0A4F8FEF724F9786203F0FD
:105F9000F1F90346002B09D18449884801F054FFE8
:105FA00040F29F428149834802F092F8FEF712F9CD
:105FB000386201F07DF80346002B09D07B49804808
:105FC00001F042FF40F29F4278497A4802F080F89F
:105FD000386AFEF703F9786AFEF700F9B86AFEF747
:105FE000FDF8FB68002B05D140F2A2426F497548CD
:105FF00002F06EF8FB68184602F012FD0346032B10
:1060000005D040F2A34269496F4802F061F803F0FD
:10601000B1F9F861FEF7DEF878636C4B1B68002B72
:1060200004D06A4B1B68FA6810469847FB69002247
:106030001A63FB681B6AFA699A4210D1FB689B7F5E
:10604000FF2B06D0FB689B7F0133DAB2FB689A779F
:10605000E8E0786BFEF7C2F86FF01B03EFE0FB6837
:106060001B6A002B26D1FB68FA691A62FB68FF22C3
:106070005A77FB6801229A77FB681B7FFF2B0FD0B2
:10608000FB681A7FFB681B6A93F835309A4207D287
:10609000FB68186AFB681B7F7A681946FFF75FFE8A
:1060A000FB6903F13C02FB68243319461046FFF7F5
:1060B00082FBB7E0BB68002B09D1FB696FF073026C
:1060C0001A63786BFEF78AF86FF07303B7E0FB6929
:1060D00093F83530FB76FB6803F11400FB685A7ABD
:1060E0007B68F969FFF7D4FB78617B69002B04D0EA
:1060F000786BFEF773F87B69A1E0FA68FB695A6474
:10610000FB685B7FFA7E9A4211D2FB68FA7E5A776F
:10611000FB685A7FFB681B6A93F835309A4206D2B7
:10612000FB681B6AF97E02221846FFF718FEBB685F
:10613000002B0CDDFB69583307F1080200211846DB
:1061400003F082FFFB695833184603F01BFE786B9F
:10615000FEF744F802F0F2FDFEF73CF87863FB69C5
:106160001B6B002B5ED000233B63FB681B6A002B7C
:106170000AD0FB681B6A93F83520FB6993F8353029
:106180009A4201D101233B63FB6814331846FFF7A1
:106190005FFB0346002B1BD1FB685B69143B3B6133
:1061A0003B6993F83520FB685A7714E0CC2D020840
:1061B0007CF601083CF50108A8F60108D0F60108B4
:1061C00018F6010808F701081CF701086C100020F8
:1061D000FB68FF225A773B6B002B14D0FB681B6ACD
:1061E0001846FFF78AFD0346FB76FB681B6A93F8A7
:1061F0003530FA7E9A4206D0FB681B6AF97E02228D
:106200001846FFF7ACFD786BFDF7E8FFFB6900224D
:106210005A64FB691B6B7B617B69002BB8BF5B42D7
:106220005B420CE0786BFDF7D9FF074B1B68002B36
:1062300004D0054B1B68FA6810469847002318469F
:106240003837BD4680BD00BF7010002080B582B0D9
:1062500000AF78603960022239687868FFF76CFE19
:10626000034618460837BD4680BD000080B58AB099
:1062700000AF78607B68002B05D140F299526B49E2
:106280006B4801F025FF7B68184602F0C9FB034606
:10629000032B05D040F29A526449664801F018FF7A
:1062A00000237B62FDF796FF386203F063F8034634
:1062B000002B09D15D49604801F0C6FD40F29F52B4
:1062C0005A495E4801F004FFFDF784FFF86100F0D1
:1062D000EFFE0346002B09D05449594801F0B4FDA4
:1062E00040F29F525149554801F0F2FEF869FDF71E
:1062F00075FF386AFDF772FF03F03CF8B861FDF7EF
:1063000069FF78614F4B1B68002B04D04D4B1B6815
:106310007A68104698477B681B6ABA699A4209D026
:10632000BB696FF0FE021A637869FDF757FF6FF0E3
:10633000FE0376E07B689B7F013BDAB27B689A774D
:106340007B689B7F002B63D17B6824331846FFF763
:1063500064FA7B681B7FFF2B06D1BB6993F835205D
:106360007B685B7F9A420FD1FF23FB72B869FFF70E
:10637000C4FC0346FB7207F10B031A460221B869FD
:1063800003F02EFA01237B627B6814331846FFF773
:106390005FFA0346002B35D17B685B69143B3B6198
:1063A0003B6914331846FFF738FA7B683A691A627A
:1063B0007B6801229A773B6903F13C027B682433B6
:1063C00019461046FFF7F7F93B6900225A6438690D
:1063D00003F03AFB7B6814331846FFF739FA03469B
:1063E000002B09D17B685B69143BFB60FB6893F869
:1063F00035207B685A7702E07B68FF225A770123B9
:106400007B6205E07B6800221A627B68FF225A7774
:106410007869FDF7E3FE7B6A012B01D102F08EFC67
:10642000002318462837BD4680BD00BFDC2D02087A
:1064300008F701081CF70108D0F601083CF501082F
:1064400018F601087410002080B584B000AFF86021
:10645000B9601346FB71FB68002B05D140F2516215
:106460001249134801F034FEFB79002B08D0FB7968
:10647000012B05D040F252620C490E4801F028FE73
:10648000FB68BA680421184602F072F9FB68FA79D1
:106490005A72FB681846FFF7EDF9FB680022DA61D3
:1064A000002318461037BD4680BD00BFF02D0208FE
:1064B000D4F7010864F5010880B588B000AF7860B2
:1064C000396000233B617B68002B05D140F20272EA
:1064D0005149524801F0FCFD7B68184602F0A0FAD1
:1064E0000346042B05D040F203724B494C4801F09F
:1064F000EFFD3B68002B02D16FF0FE0388E0002324
:106500007B61FDF767FEF8607B68DA693B681A43D8
:106510007B68DA61434B1B68002B04D0414B1B683E
:106520007A68104698477B6814331846FFF790F94D
:106530000346002B63D17B685B69FB6150E0FB691C
:10654000143BBB606FF0FE03BB61BB6893F84C303B
:1065500003F00103002B0BD0BB689A6C7B68DB69EE
:106560001A40BB689B6C9A4220D10023BB611DE09E
:10657000BB6893F84C3003F00203002B10D0BB68CB
:106580009A6C7B68DB691340002B0FD0BB689A6C58
:106590007B68DB691A40BB689A640023BB6105E035
:1065A000F868FDF71BFE6FF0150331E0FB691B680F
:1065B000FB61BB69002B13D1BB6893F84C3003F02F
:1065C0000403002B04D0BB689B6C3A6913433B6106
:1065D000B86803F039FABB6800221A6301237B61B3
:1065E0007B681433FA699A42A9D13B69002B06D023
:1065F0007B68DA693B69DB431A407B68DA61F868DB
:10660000FDF7ECFD7B69012B01D102F097FB002324
:1066100018462037BD4680BD002E0208D4F7010879
:10662000E8F701087410002080B58CB000AFF86066
:10663000B9603B601346FB71FB68002B05D14FF43A
:10664000F1629149914801F043FDFB68184602F060
:10665000E7F90346042B05D040F289728A498C4839
:1066600001F036FD00F038FD7862FDF7B3FD3862C9
:1066700002F018FD0346002B09D08349854801F03C
:10668000E3FB40F28C728049834801F021FD7B6A74
:10669000012B09D17C49814801F0D6FB40F28C7274
:1066A00079497D4801F014FDFDF794FDF86102F091
:1066B00061FE0346002B09D17349794801F0C4FB00
:1066C00040F28C727049744801F002FDFDF782FDC2
:1066D000B86100F0EDFC0346002B09D06A4971480F
:1066E00001F0B2FB40F28C7267496B4801F0F0FC9C
:1066F000B869FDF773FDF869FDF770FD386AFDF7BD
:106700006DFDBB68002B02D16FF0FE03B7E06FF0A8
:10671000FE03BB6202F02EFE78617B696FF003021C
:106720001A63614B1B68002B04D05F4B1B68FA682F
:1067300010469847FDF74EFDF862FB7903F0010320
:10674000002B09D0FB68DA69BB681340BA689A422B
:1067500016D10023BB6213E0FB7903F00203002B88
:1067600008D0FB68DA69BB681340002B08D000230F
:10677000BB6205E040F2AB724349474801F0A8FC18
:10678000BB6A002B22D17B6900221A63BB6B002BF2
:1067900005D0FB68DA69BB681A40BB6B1A60FB68FE
:1067A000DA69BB681A407B699A647B69FA7983F875
:1067B0004C20FB7903F00403002B52D0FB68DA690C
:1067C000BB68DB431A40FB68DA614AE03B68002B98
:1067D00009D17B696FF073021A63F86AFDF7FEFC5A
:1067E0006FF073034BE07B69BA689A647B69FA794E
:1067F00083F84C20FB6803F11400FB685A7AFB6BAA
:106800007969FFF745F838613B69002B04D0F86AD5
:10681000FDF7E4FC3B6932E03B68002B0BDD7B6954
:1068200058333A460021184603F00EFC7B69583372
:10683000184603F0A7FAF86AFDF7D0FC02F07EFADA
:106840007B691B6B002B02D07B691B6B17E0FDF78C
:10685000C1FCF862BB6B002B03D07B699A6CBB6BED
:106860001A60F86AFDF7BAFC104B1B68002B04D0C5
:106870000E4B1B68FA68104698477B691B6B1846DD
:106880003037BD4680BD00BF102E0208D4F7010886
:10689000E8F701087CF601083CF50108A8F60108B4
:1068A000D0F6010818F601086C10002070100020C6
:1068B00080B586B002AFF860B9603B601346FB71EB
:1068C000FA7902230193BB6900933B68B968F868C1
:1068D000FFF7AAFE034618461037BD4680BD0000EC
:1068E00090B587B000AFF860B9607A603B60FB6834
:1068F000002B05D140F67F323549364801F0E8FBE0
:1069000097F82C30002B09D097F82C30012B05D0AC
:106910004FF438622E49304801F0DAFBFB68BA6860
:106920000621184601F024FFFB6897F82C205A72C4
:10693000FB681846FEF79EFFFB687A68DA613B68E1
:10694000033323F003043B689AB2FB681A8404F112
:106950000803BA6AB2FBF3F39AB2FB685A84FB6885
:106960005B8C002B02D16FF015032DE0FB68002239
:106970009A62FB680022DA62FB6800221A63002335
:106980007B6112E0FB68DA6904F10803796901FBB5
:1069900003F313443B61FB681A6B3B691A60FB68A5
:1069A0003A691A637B6901337B61FB685B8C1A4629
:1069B0007B699342E6DBFB6800229A84FB683433F0
:1069C0001846FEF7E7FE002318461C37BD4690BD6B
:1069D000202E020860F9010864F5010880B58EB028
:1069E00000AFF860B9607A603B60FB68002B05D1AE
:1069F00040F694429D499E4801F06AFBFB681846A8
:106A000002F00EF80346062B05D040F69542974952
:106A1000984801F05DFBBB68002B05D140F696421B
:106A20009249954801F054FB7B68002B05D140F654
:106A300097428E49914801F04BFB3B6C002B4ED0A6
:106A400000F04AFBF862FDF7C5FBB86202F02AFBD2
:106A50000346002B09D08549894801F0F5F940F635
:106A60009A428249874801F033FBFB6A012B09D126
:106A70007E49854801F0E8F940F69A427B49814811
:106A800001F026FBFDF7A6FB786202F073FC0346DB
:106A9000002B09D175497D4801F0D6F940F69A429C
:106AA0007249784801F014FBFDF794FB386200F05E
:106AB000FFFA0346002B09D06C49754801F0C4F970
:106AC00040F69A4269496F4801F002FB386AFDF7C7
:106AD00085FB786AFDF782FBB86AFDF77FFBFB68F0
:106AE0001B8C1A467B68934202D96FF0FE03E3E0E9
:106AF00000233B6302F03EFCF861664B1B68002BF1
:106B000004D0644B1B68FA6810469847FDF762FB97
:106B10007863FB681B6BBB61BB69002B5CD13B6C72
:106B2000002B59D1786BFDF759FB6FF01B03C3E0C5
:106B3000FB696FF003021A633B6C002B05D1786B85
:106B4000FDF74CFB6FF01B03B6E0FB6803F134006C
:106B5000FB685A7A7B6CF969FEF79AFE78617B696B
:106B6000002B04D0786BFDF739FB7B69A4E03B6C0C
:106B7000002B0FDDFEF7F2FB3863FB69583307F19A
:106B800040020021184603F05FFAFB6958331846AB
:106B900003F0F8F8786BFDF721FB02F0CFF8FB6902
:106BA0001B6B002B02D0FB691B6B85E0FDF712FB12
:106BB00078633B6C002B0FDDFEF7D0FB02463B6B8E
:106BC000D31A3B633B6C1A463B6BD31A3B643B6C5A
:106BD000002B01DA00233B64FB681B6BBB61BB69C4
:106BE000002BA5D0BB691A68FB681A63786BFDF7A8
:106BF000F5FABB6900221A607A68BB695A60BB6902
:106C000008337A68B968184600F03CFBFDF7E2FAF1
:106C10007863FB68DB6A002B03D0FB68DB6ABA6928
:106C20001A60FB68BA69DA62FB689B6A002B02D1C2
:106C3000FB68BA699A62FB689B8C4FF6FF729342BD
:106C40000ED0FB689B8C01339AB2FB689A84FB6878
:106C500014331846FEF7FCFD0346002B28D11BE039
:106C6000786BFDF7BBFA6FF01B0325E02C2E0208B2
:106C700060F9010870F9010824FA010838FA0108DE
:106C80007CF601083CF50108A8F60108D0F60108D9
:106C900018F6010874100020FB6814331846FEF73C
:106CA00059FE786BFDF79AFA02F048F8002303E0EA
:106CB000786BFDF793FA002318463837BD4680BD40
:106CC00080B586B002AFF860B9607A603B6002239D
:106CD00001933B68009300237A68B968F868FFF76E
:106CE0007DFE034618461037BD4680BD80B584B092
:106CF00000AFF860B9607A6000237A68B968F86814
:106D0000FFF7DEFF034618461037BD4680BD000082
:106D100080B58EB000AFF860B9607A603B60FB6808
:106D2000002B05D140F62362A049A14801F0D0F91B
:106D3000FB68184601F074FE0346062B05D040F6AA
:106D400024629A499B4801F0C3F9BB68002B05D126
:106D500040F625629549984801F0BAF97B68002B06
:106D600005D140F626629149944801F0B1F93B6C97
:106D7000002B4ED000F0B0F9B862FDF72BFA786224
:106D800002F090F90346002B09D088498C4801F0A5
:106D90005BF840F6296285498A4801F099F9BB6A97
:106DA000012B09D18149884801F04EF840F629624B
:106DB0007E49844801F08CF9FDF70CFA386202F044
:106DC000D9FA0346002B09D17849804801F03CF8F4
:106DD00040F6296275497B4801F07AF9FDF7FAF926
:106DE000F86100F065F90346002B09D06F49784837
:106DF00001F02AF840F629626C49724801F068F9FE
:106E0000F869FDF7EBF9386AFDF7E8F9786AFDF7FC
:106E1000E5F900233B6302F0ADFAB8616D4B1B68E6
:106E2000002B04D06B4B1B68FA6810469847FDF79F
:106E3000D1F97863FB689B8C002B60D13B6C002BF5
:106E40005DD1786BFDF7CAF96FF07303D3E0BB69CE
:106E50006FF003021A633B6C002B09D1786BFDF7CE
:106E6000BDF9BB696FF073021A636FF07303C2E080
:106E7000FB6803F11400FB685A7A7B6CB969FEF772
:106E800007FD38613B69002B04D0786BFDF7A6F94C
:106E90003B69B0E03B6C002B0FDDFEF75FFA386317
:106EA000BB69583307F140020021184603F0CCF8C3
:106EB000BB695833184602F065FF786BFDF78EF911
:106EC00001F03CFFBB691B6B002B02D0BB691B6B45
:106ED00091E0FDF77FF978633B6C002B0FDDFEF747
:106EE0003DFA02463B6BD31A3B633B6C1A463B6B45
:106EF000D31A3B643B6C002B01DA00233B64FB6834
:106F00009B8C002BA3D0FB689B6A7B617B691A6812
:106F1000FB689A62FB68DB6A7A699A4202D1FB6875
:106F20000022DA62FB689B8C002B05D0FB689B8CEF
:106F3000013B9AB2FB689A84786BFDF74FF97B6945
:106F40005B68FB62FA6A7B689A4201D97B68FB62E4
:106F50007B690833FA6A1946B86800F093F9FDF7BF
:106F600039F97863FB681A6B7B691A60FB687A6988
:106F70001A63FB6834331846FEF76AFC0346002B9D
:106F80002CD1FB6834331846FEF7E4FC786BFDF730
:106F900025F9114B1B68002B04D00F4B1B68FA68B6
:106FA0001046984701F0CAFEFB6A24E0402E020812
:106FB00060F9010870F9010824FA010838FA01089B
:106FC0007CF601083CF50108A8F60108D0F6010896
:106FD00018F601086C10002070100020786BFDF787
:106FE000FDF8074B1B68002B04D0054B1B68FA68A3
:106FF00010469847FB6A18463837BD4680BD00BF2B
:107000007010002080B586B002AFF860B9607A6079
:107010003B60022301933B68009300237A68B968C0
:10702000F868FFF775FE034618461037BD4680BD69
:1070300080B582B000AFFDF7CDF878600A4B1B78C1
:10704000DBB20133DAB2084B1A70084B1B68002B15
:1070500002D0064B1B6898477868FDF7BFF800BF61
:107060000837BD4680BD00BF1C0F0020140F002054
:1070700080B582B000AFFDF7ADF878600A4B1B68B1
:10708000002B02D0084B1B689847084B1B78DBB2DB
:10709000013BDAB2054B1A707868FDF79FF800BF24
:1070A0000837BD4680BD00BF180F00201C0F002010
:1070B00080B582B000AFFDF78DF87860054B1B7886
:1070C000FB707868FDF78AF8FB7818460837BD46EC
:1070D00080BD00BF1C0F002080B400AF0023184605
:1070E000BD465DF8047B704780B485B000AF786022
:1070F0007B68002B02DA7B685B427B600023FB60CD
:107100000FE00D4AFB6852F833307A689A4205D195
:10711000094AFB68DB0013445B6806E0FB68013347
:10712000FB60FB680E2BECD9044B18461437BD46A8
:107130005DF8047B704700BF0800002034FC0108A4
:1071400080B584B000AF78600023FB60FFF7B0FF2C
:107150000346002B03D00A4A7B6813600CE002F060
:1071600009F9F860FB68002B03D1054A7B681360BE
:1071700002E0FB687A681A631037BD4680BD00BF25
:10718000200F002080B582B000AF00237B60FFF7A6
:107190008FFF0346002B01D0074B09E002F0EAF80D
:1071A00078607B68002B02D07B68303300E0024BB4
:1071B00018460837BD4680BD200F002080B48BB034
:1071C00000AFF860B9607A6000237B62FB683B62C5
:1071D00000237B610023FB61BB68FB767B68032B8C
:1071E00044D9FB6803F00303002B3FD1FB68FB612C
:1071F00000237B6208E007F114027B6A1344FA7EE5
:107200001A707B6A01337B627B6A032BF3D916E029
:10721000FB691A1DFA617A691A60FB691A1DFA6125
:107220007A691A60FB691A1DFA617A691A60FB694A
:107230001A1DFA617A691A607B68103B7B607B6873
:107240000F2BE5D807E0FB691A1DFA617A691A600D
:107250007B68043B7B607B68032BF4D8FB693B6253
:1072600004E03B6A5A1C3A62FA7E1A707B685A1E26
:107270007A60002BF5D1FB6818462C37BD465DF8C7
:10728000047B704780B48BB000AFF860B9607A605F
:10729000FB687B62BB683B620023FB610023BB6130
:1072A0007B687B617B690F2B4DD93A6A7B6A1343FC
:1072B00003F00303002B46D17B6AFB613B6ABB6191
:1072C00022E0BA69131DBB61FB69191DF9611268DF
:1072D0001A60BA69131DBB61FB69191DF961126857
:1072E0001A60BA69131DBB61FB69191DF961126847
:1072F0001A60BA69131DBB61FB69191DF961126837
:107300001A607B69103B7B617B690F2BD9D80AE03F
:10731000BA69131DBB61FB69191DF96112681A6016
:107320007B69043B7B617B69032BF1D8FB697B6242
:10733000BB693B6207E03A6A531C3B627B6A591C9B
:10734000796212781A707B695A1E7A61002BF2D129
:10735000FB6818462C37BD465DF8047B704780B447
:1073600087B000AFF860B9607A60FB687B61BB688A
:107370003B613A697B699A4226D23A697B68134439
:107380007A699A4220D27A697B6813447B613A69B0
:107390007B6813443B6109E03B69013B3B617B69CE
:1073A000013B7B613B691A787B691A707B685A1EC6
:1073B0007A60002BF0D10CE03A69531C3B617B6989
:1073C000591C796112781A707B685A1E7A60002BFA
:1073D000F2D1FB6818461C37BD465DF8047B704748
:1073E00080B582B002AF0B4800F02EFD0A4800F0D5
:1073F0002BFD0A4B01930A4B009302230022052127
:10740000084800F021FD084800F01EFD00BFBD4601
:1074100080BD00BF3CFC010848FC010890FC01084D
:107420009CFC01086CFC0108A8FC010880B485B034
:1074300000AF786039607B681B683A68B3FBF2F193
:1074400001FB02F29B1AFB607B681A683B68B2FB87
:10745000F3F27B681A60FB6818461437BD465DF886
:10746000047B704780B485B000AF78600023FB6078
:107470000EE0FA6813469B0013445B0018467B68D5
:107480001B68591C7A6811601B780344303BFB6011
:107490007B681B681B78303B092BEAD9FB681846D0
:1074A0001437BD465DF8047B7047000080B592B08C
:1074B00000AFF860B9607A603B60002387F83B302A
:1074C000002387F8473000233B6107F114030022B3
:1074D0001A605A609A60DA601A615A619A61BB6DEB
:1074E0007B6300233B6300233B640023FB637B6DD2
:1074F000FB63FB6D03F04003002B01D0944B00E0D5
:10750000944B3B63FB6D03F01003002B03D0FB6D2A
:1075100023F00103FB65FB6D03F00103002B01D099
:10752000302300E0202387F83B30002387F84730E2
:10753000FB6D03F00203002B46D03B6D6C2B15D086
:107540003B6D6C2B1CDC3B6D4C2B0FD03B6D682BCB
:1075500016D17B681BB2002B1CDA2D2387F847302D
:107560007B689BB25B429BB27B6013E07B68002B25
:1075700012DA2D2387F847307B685B427B600BE093
:107580007B68002B0ADA2D2387F847307B685B4243
:107590007B6003E000BF02E000BF00E000BF97F89F
:1075A00047302D2B10D0FB6D03F00403002B03D0CC
:1075B0002B2387F8473007E0FB6D03F00803002B0F
:1075C00002D0202387F84730FB6D03F02003002B07
:1075D0000FD03B68022B02D03B68102B03D1FB6B12
:1075E000023BFB6305E03B68082B02D1FB6B013BD0
:1075F000FB6300233B647B68002B1BD13B6C5A1C54
:107600003A6407F148021344302203F8382C14E09E
:107610003B1D39681846FFF709FF03461A463B6BC6
:107620001A443B6C591C3964127807F148010B4429
:1076300003F8382C7B68002BEAD13A6CBB6D9A4278
:1076400001DD3B6CBB65FA6BBB6DD31AFB63FB6D55
:1076500003F01103002B19D197F84730002B10D0FD
:10766000FB6B002B0DDDFB6B013BFB6309E0FA6854
:10767000BB689A4202D2FB6820221A70FB68013371
:10768000FB60FB6B5A1EFA63002BF0DC97F8473067
:10769000002B0DD0FA68BB689A4203D2FB6897F8BA
:1076A00047201A70FB6B013BFB63FB680133FB60F7
:1076B000FB6D03F02003002B43D03B68022B14D159
:1076C000FA68BB689A4202D2FB6830221A70FB68E3
:1076D0000133FB60FA68BB689A4202D2FB686222FF
:1076E0001A70FB680133FB602BE03B68082B0AD162
:1076F000FA68BB689A4202D2FB6830221A70FB68B3
:107700000133FB601DE03B68102B1AD1FA68BB689F
:107710009A4202D2FB6830221A70FB680133FB6088
:10772000FA68BB689A4209D2FB6D03F04003002B54
:1077300001D0582200E07822FB681A70FB68013300
:10774000FB60FB6D03F01003002B20D10FE000BFA6
:107750004C2E0208602E0208FA68BB689A4203D2D7
:10776000FB6897F83B201A70FB680133FB60FB6BEA
:107770005A1EFA63002BEFDC09E0FA68BB689A42F4
:1077800002D2FB6830221A70FB680133FB60BB6DCC
:107790005A1EBA653A6C9A42EFDB0DE0FA68BB6894
:1077A0009A4206D207F110023B6C13441A78FB6828
:1077B0001A70FB680133FB603B6C5A1E3A64002B65
:1077C0000DDD7B6B002BE9D109E0FA68BB689A42BA
:1077D00002D2FB6820221A70FB680133FB60FB6B4E
:1077E0005A1EFA63002BF0DCFB6818464837BD468A
:1077F00080BD00BF80B592B004AFF860B9607A6018
:107800003B6000237B6300233B630023FB62002378
:10781000BB6200237B620023FB7400233B620023D6
:10782000FB770023BB7700237B770023BB6100231A
:107830007B61FB68BB62FA68BB6813447B627A6A4F
:10784000FB689A4280F087824FF0FF337B627A6A4E
:10785000FB68D31ABB607EE27B681B78252B0BD0BC
:10786000BA6A7B6A9A4203D27B681A78BB6A1A703A
:10787000BB6A0133BB626BE20023BB777B680133D9
:107880007B607B681B782D2B04D1BB7F43F01003FA
:10789000BB77F3E77B681B782B2B04D1BB7F43F0CE
:1078A0000403BB77EAE77B681B78202B04D1BB7FFE
:1078B00043F00803BB77E1E77B681B78232B04D1F7
:1078C000BB7F43F02003BB77D8E77B681B78302B66
:1078D00004D1BB7F43F00103BB77CFE700BF4FF07C
:1078E000FF33BB617B681B78303B092B05D83B1D00
:1078F0001846FFF7B7FDB86115E07B681B782A2BA7
:1079000011D17B6801337B603B681A1D3A601B68AC
:10791000BB61BB69002B06DABB695B42BB61BB7F05
:1079200043F01003BB774FF0FF337B617B681B781C
:107930002E2B1ED17B6801337B607B681B78303B2C
:10794000092B05D83B1D1846FFF78CFD78610BE02D
:107950007B681B782A2B07D17B6801337B603B68EF
:107960001A1D3A601B687B617B69002B01DA0023DA
:107970007B6100237B777B681B78682B03D07B6857
:107980001B786C2B05D17B681B787B777B68013378
:107990007B600A23FB777B681B78253B532B00F227
:1079A000888101A252F823F0797C0008B37C00089A
:1079B000B37C0008B37C0008B37C0008B37C0008EB
:1079C000B37C0008B37C0008B37C0008B37C0008DB
:1079D000B37C0008B37C0008B37C0008B37C0008CB
:1079E000B37C0008B37C0008B37C0008B37C0008BB
:1079F000B37C0008B37C0008B37C0008B37C0008AB
:107A0000B37C0008B37C0008B37C0008B37C00089A
:107A1000B37C0008B37C0008B37C0008B37C00088A
:107A2000B37C0008B37C0008B37C0008B37C00087A
:107A3000B37C0008B37C0008B37C0008B37C00086A
:107A4000B37C0008B37C0008B37C0008B37C00085A
:107A5000B37C0008B37C0008B37C0008B37C00084A
:107A6000B37C0008B37C0008B37C0008B37C00083A
:107A7000B37C00089B7C0008B37C0008B37C000842
:107A8000B37C0008B37C0008B37C0008B37C00081A
:107A9000B37C0008B37C0008B37C00088F7C00082E
:107AA000F97A0008A97C0008B37C0008B37C0008C0
:107AB000B37C0008B37C0008A97C0008B37C0008F4
:107AC000B37C0008B37C0008B37C0008B37C0008DA
:107AD000957C00082D7C0008B37C0008B37C00086E
:107AE000677B0008B37C0008EF7C0008B37C0008CB
:107AF000B37C0008A37C0008BB7F03F01003002BBD
:107B000010D109E0BA6A7B6A9A4202D2BB6A20228B
:107B10001A70BB6A0133BB62BB69013BBB61BB69C5
:107B2000002BEFDC3B681A1D3A601B68FB74BA6AD5
:107B30007B6A9A4202D2BB6AFA7C1A70BB6A013332
:107B4000BB6209E0BA6A7B6A9A4202D2BB6A20220F
:107B50001A70BB6A0133BB62BB69013BBB61BB6985
:107B6000002BEFDCF4E03B681A1D3A601B683B62B7
:107B70003B6A002B01D1854B3B620023FB6202E094
:107B8000FB6A0133FB62FA6ABB699A4205D0FB6A61
:107B90003A6A13441B78002BF2D17B69002B05DD78
:107BA000FA6A7B699A4201DD7B69FB62BB7F03F065
:107BB0001003002B10D109E0BA6A7B6A9A4202D204
:107BC000BB6A20221A70BB6A0133BB62BB695A1EB2
:107BD000BA61FA6A9A42EFDB00233B6310E0BA6AAB
:107BE0007B6A9A4203D23B6A1A78BB6A1A70BB6AF4
:107BF0000133BB623B6A01333B623B6B01333B6346
:107C00003A6BFB6A9A42EADB09E0BA6A7B6A9A42FB
:107C100002D2BB6A20221A70BB6A0133BB62BB6905
:107C20005A1EBA61FA6A9A42EFDB91E0BB69B3F17E
:107C3000FF3F0CD10823BB61BB690233BB61BB7F33
:107C400043F02003BB77BB7F43F00103BB773B6866
:107C50001A1D3A601B6819467B7FBA7F03927A69C6
:107C60000292BA690192009310230A46796AB86AAF
:107C7000FFF71CFCB8626BE0BA6A7B6A9A4202D2D8
:107C8000BB6A25221A70BB6A0133BB6260E0022323
:107C9000FB772DE00823FB772AE0BB7F43F040030E
:107CA000BB771023FB7723E0BB7F43F00203BB7756
:107CB0001DE0BA6A7B6A9A4202D2BB6A25221A7018
:107CC000BB6A0133BB627B681B78002B0BD0BA6A9E
:107CD0007B6A9A4203D27B681A78BB6A1A70BB6AC5
:107CE0000133BB6234E07B68013B7B6030E000BF66
:107CF0007B7F6C2B05D13B681A1D3A601B687B6348
:107D000016E07B7F682B0ED13B681A1D3A601B681A
:107D10009BB27B63BB7F03F00203002B08D07B6B1D
:107D20001BB27B6304E03B681A1D3A601B687B63EF
:107D3000F97F7B7FBA7F03927A690292BA690192D6
:107D400000930B467A6B796AB86AFFF7AFFBB862AB
:107D50007B6801337B607B681B78002B7FF47CADF4
:107D6000BB68002B0BD0BA6A7B6A9A4203D2BB6A0B
:107D700000221A7003E07B6A013B00221A70BA6A83
:107D8000FB68D31A18463837BD4680BDD4FC0108BD
:107D90000CB480B584B000AF786039600023FB601C
:107DA00007F11C03BB60BB68BA6939687868FFF7E4
:107DB00021FDF860FB6818461037BD46BDE88040DD
:107DC00002B0704780B400AF034B1B681846BD4635
:107DD0005DF8047B704700BF240F002080B584B09D
:107DE00000AF7860124B1B68FB6078680BF096F967
:107DF000B860BA68FB689A4201D1002313E0BB68FF
:107E0000002B0FD00A4B1B68002B04D0084B1B68BB
:107E100018460BF07DFA4321B8680BF0D1F9044AFB
:107E2000BB681360FB6818461037BD4680BD00BFB5
:107E3000240F002080B483B000AF786000BF0C37FF
:107E4000BD465DF8047B70470FB480B582B000AFCB
:107E500000237B6007F114033B603B683A69FF2114
:107E60001048FFF7C7FC03467B607B68FF2B01D9F6
:107E7000FF237B600C4B1B68002B03D10948FFF7E5
:107E8000D9FF06E0084B18687B68064A00210BF012
:107E9000D1FA7B6818460837BD46BDE8804004B07B
:107EA000704700BF640F0020240F002080B500AF92
:107EB000012203490348FDF7BBFF00BF80BD00BF9F
:107EC000DCFC0108300F002080B500AF01F052FA51
:107ED0000346002B06D04FF0FF310448FEF7B6F9F9
:107EE000034600E00023184680BD00BF300F00208D
:107EF00080B582B000AF78607B68002B05D040F27F
:107F000049620849084800F0E3F801F033FA0346F3
:107F1000002B02D00548FEF7A9F900BF0837BD467F
:107F200080BD00BF882E0208E4FC0108300F00204D
:107F300080B485B000AFF860B9607A60FB68002B50
:107F400004D00D4B1B68DA69FB681A60BB68002B14
:107F500004D0094B1B681A6ABB681A607B68002B47
:107F600004D0054B1B685A6A7B681A6000BF14373F
:107F7000BD465DF8047B70475C0F002080B584B07F
:107F800000AF786039607B68033323F00303FB6044
:107F90003B6823F00303BB60BA68FB689A4205D8CC
:107FA00040F2AA620A490B4800F092F8BA68FB68EE
:107FB000D31A1A467968084800F02CF90346074A94
:107FC0001360FFF773FF00BF1037BD4680BD00BFD1
:107FD000742E0208F4FC0108DCFC01085C0F002090
:107FE00080B584B000AF7860FFF76EFFF8600C4B8F
:107FF0001B687968184600F08FF9B860F868FFF7D9
:1080000077FF084B1B68002B04D0064B1B68796870
:10801000B8689847BB6818461037BD4680BD00BF9A
:108020005C0F0020280F002080B584B000AF78607E
:1080300039607B683A6802FB03F31846FFF7D0FF0C
:10804000F860FB68002B08D07B683A6802FB03F3FA
:108050001A460021F868FFF7B1F8FB681846103798
:10806000BD4680BD80B584B000AF78600C4B1B6806
:10807000002B03D00A4B1B68786898477B68002B5D
:1080800009D0FFF721FFF860786800F079FAF86806
:10809000FFF72EFF00E000BF1037BD4680BD00BFD8
:1080A0002C0F002080B586B000AFF860B9607A6010
:1080B000FFF70AFF78617A68B968F868FFF738FF58
:1080C0007869FFF715FF00BF1837BD4680BD000077
:1080D00080B586B000AFF860B9607A600023FB75A8
:1080E0000C4B1B68002B0BD17B68BA68F9680A48F7
:1080F000FFF7AAFE00BFFB7DDBB2002BFBD005E043
:10810000044B1B687A68B968F868984700BF18374D
:10811000BD4680BD600F00200CFD010880B584B015
:1081200000AF786039607B689B6A3A689A4204D2F3
:10813000852235493548FFF7CBFF7B68DB6A3A6813
:108140009A4204D3862230493148FFF7C1FF7B6849
:108150009A6A3B685B681344FB603A68FB689A4222
:1081600024D0FB681B6803F00103002B1ED17B6841
:10817000DB6AFA689A4219D07B681B6BFA689A42EC
:1081800002D17B683A681A63FB6800221A60FB68B8
:108190005A683B685A607B689B6A3A68D11A7B6868
:1081A0009A6AFB685B6813440A469A607B689A6A1D
:1081B0003B689B681344BB60BA683B689A421FD017
:1081C000BB681B6803F00103002B19D17B681B6B94
:1081D0003A689A4202D17B68BA681A633B68002207
:1081E0001A603B685A68BB685A607B689B6ABA68C9
:1081F000D11A7B689A6A3B685B6813440A469A60A6
:1082000000BF1037BD4680BD982E020844FD01080E
:1082100068FD010880B58AB000AFF860B9607A6087
:10822000BB68033323F003037B627B6A38333B6212
:108230003B6A033323F00303FB61BA687B68134492
:1082400023F00303BB61BB69182B53D9BB69183BEF
:108250003A6A9A424ED8BA69FB69D31A183B7B61D5
:1082600038220021786AFEF7A9FF7B6AFA680C21A0
:10827000184600F07DFA7B6A254A5A617B6AFA69E2
:108280009A617B6A7A69DA617B6A7A695A63FA6908
:108290007B6A9A627B6A9B6A3B617B6A23F001027C
:1082A0003B691A607B6A5B6B03F10C023B695A60A5
:1082B0003B6900229A607B6A9A6A3B695B681A4450
:1082C0007B6ADA627A6A7B6ADB6A42F001021A60D0
:1082D0007B6A5A6B7B6ADB6A0C325A607B6A5A6B28
:1082E0007B6ADB6A0C329A607B6A9A6A7B6A1A63E1
:1082F0007B6A08E0B968BA687B6813441A46054887
:10830000FFF7A2FD002318462837BD4680BD00BFF9
:1083100098FD0108A0FD010880B588B000AF786025
:1083200039603B68002B01D1002315E17B68002BED
:1083300005D140F221128A498A48FFF7C9FE7B68BD
:10834000184600F06DFB03460C2B05D04FF49172DC
:1083500083498548FFF7BCFE7B68184600F042FB66
:108360000346002B05D140F223127D497F48FFF7D9
:10837000AFFE7B68BB613B68033323F003033B60C4
:108380003B680B2B01D80C233B60BB695B6B3A68E5
:108390009A4201D90023DFE0BB691A6BBB699B6A73
:1083A000D31AFB61CFE0BB699A6AFB6913447B6116
:1083B0007B691B6803F00103002B40F0BE807B69E2
:1083C0005A68FB69D31A0C3B3A689A4200F2B580AE
:1083D0007B695A68FB69D31AA3F10C023B68183316
:1083E0009A4239D3FA693B6813440C333B61BB6949
:1083F0009A6A3B691344FB60BB6923F00102FB6886
:108400001A607B695A68FB685A60FB68FA699A606F
:108410007B693A695A60FB685A68BB695B6B0C33CD
:108420009A4206D0BB699A6AFB685B6813443A6952
:108430009A60BB691A6A3B68134403F10C02BB697A
:108440001A62BB695A6ABB691B6A9A421AD2BB6933
:108450001A6ABB695A6215E0BB691A6A7B695B6874
:10846000B969896A7869411A5B1A1A44BB691A6248
:10847000BB695A6ABB691B6A9A4203D2BB691A6A12
:10848000BB695A62BB6943F001027B691A60BB6930
:108490001B6B7A699A4228D107E0BB699A6ABB696B
:1084A0001B6B5B681A44BB691A63BB691B6B1B6857
:1084B00003F00103002B05D0BB691A6BBB69DB6AB3
:1084C0009A42EAD1BB691A6BBB69DB6A9A420CD04B
:1084D000BB691B6B1B6803F00103002B05D04FF435
:1084E000C4721F492248FFF7F3FD7A693B681344C1
:1084F0000C33BA69D26A934205D94FF4C572184950
:108500001C48FFF7E5FD7B690C3303F00303002BE8
:1085100005D040F28B1212491748FFF7D9FD7B694D
:1085200003F00303002B05D04FF4C6720C49134827
:10853000FFF7CEFD7B690C330EE0BB699A6AFB69DD
:1085400013445B68FB61BB695A6B3B68D31AFA69D9
:108550009A427FF628AF002318462037BD4680BDDB
:10856000A42E0208DCFD0108ECFD010828FE01082C
:1085700050FE0108A0FE0108F0FE01083CFF0108C2
:1085800080B584B000AF78607B68002B00F08380FA
:108590007B6803F00303002B05D04FF403724049BE
:1085A0004048FFF795FD7B680C3BFB60FB681B6850
:1085B00023F00103BB60BB68002B05D140F21222FF
:1085C00037493948FFF784FDFB681B6803F0010356
:1085D000002B05D140F2132231493448FFF778FDD2
:1085E000BB68184600F01CFA03460C2B05D04FF46C
:1085F00005722B492E48FFF76BFDBB68184600F04B
:10860000F1F90346002B05D140F2152224492948EF
:10861000FFF75EFDBB689B6A7A689A4204D3BB6829
:10862000DB6A7A689A4205D340F216221C49224836
:10863000FFF74EFDBB689A6AFB685B6813441B68D2
:1086400023F001031A46BB68934205D04FF406722B
:1086500013491A48FFF73CFDBB6823F00102FB6891
:108660001A60BB681B6BFA689A4202D2BB68FA6850
:108670001A63BB681A6ABB689B6AF968CB1A194609
:10868000FB685B68CB1A1A44BB681A62F968B86861
:10869000FFF744FD00E000BF1037BD4680BD00BFBE
:1086A000B42E02086CFF01080C0002082400020826
:1086B000340002087C000208B40002082801020805
:1086C00080B483B000AF786039607B681B683A681B
:1086D0005A607B681A683B681A607B683A681A605F
:1086E0003B687A685A6000BF0C37BD465DF8047B72
:1086F000704780B483B000AF78607B681B687A688D
:1087000052685A607B685B687A6812681A607B6896
:108710007A685A607B685A687B681A6000BF0C37B9
:10872000BD465DF8047B704780B485B000AF03465A
:10873000FB710023FB600FE00C4AFB681B01134434
:108740001B78FA799A4204D1FB681B01074A13444B
:1087500006E0FB680133FB60FB680A2BECDD0023BD
:1087600018461437BD465DF8047B70478000002032
:1087700080B588B000AFF8600B467A60FB720023CA
:10878000FB61FB7A1846FFF7CFFFB861BB69002B8E
:1087900005D14FF4B77223492348FFF799FC00F045
:1087A0003DFCBB695B68FB610FE0FB690C3B3B6117
:1087B0003A69FB689A4205D140F27D1219491B487B
:1087C000FFF786FCFB691B68FB61BB690433FA6930
:1087D0009A42EAD100F03AFCFB7A63F07F03DAB206
:1087E000FB681A72FB6808227968184616F042FB8B
:1087F0000F4B1B68002B03D00D4B1B68F868984784
:10880000FBF7E8FC7861BB691A1DFB680C3319465D
:108810001046FFF755FF7869FBF7E0FC00BF2037F3
:10882000BD4680BDC42E020860010208780102081E
:108830006410002080B584B000AF78607B68002BA6
:1088400005D140F2AD120F490F48FFF741FC0F4B25
:108850001B68002B03D00D4B1B68786898477B681A
:1088600000221A72FBF7B6FCF8607B680C331846DE
:10887000FFF73FFFF868FBF7B1FC00BF1037BD46BC
:1088800080BD00BFD42E02088801020868100020B5
:1088900080B586B000AF03463960FB71FBF79AFCE8
:1088A0007861FEF705FC0346002B09D029492A48C8
:1088B000FFF7CAFA40F2D11226492848FFF708FC10
:1088C0007869FBF78BFCFB791846FFF72DFF3861C1
:1088D0003B69002B05D140F2D5121E492048FFF715
:1088E000F7FB3B69DB681846FFF77AFBF860FB682B
:1088F000002B01D1002329E03B69DB681A460021E7
:10890000F868FEF75BFCFB68FA791A72FB680022D4
:108910005A72FB6808223968184616F0ABFA114BF8
:108920001B68002B03D00F4B1B68F8689847FBF7B8
:1089300051FCB8603B691A1DFB680C3319461046A0
:10894000FFF7BEFEB868FBF749FCFB68184618370E
:10895000BD4680BDE82E02089C010208C401020841
:10896000600102086410002080B584B000AF786018
:108970007B68002B05D140F2122216491648FFF7FA
:10898000A7FB7B681B7A5BB2002B05DA40F213224F
:1089900010491248FFF79CFB114B1B68002B03D0BA
:1089A0000F4B1B68786898477B6800221A72FBF7A8
:1089B00011FCF8607B680C331846FFF79AFEF868E4
:1089C000FBF70CFC7868FFF74DFB00BF1037BD4686
:1089D00080BD00BFFC2E020888010208C801020801
:1089E0006810002080B582B000AF78607B68002BF3
:1089F00005D140F2352208490848FFF769FB7B683A
:108A00001B7A5BB2002B01DA012300E00023184639
:108A10000837BD4680BD00BF102F0208880102083C
:108A200080B582B000AF78607B68002B05D14FF431
:108A3000127206490648FFF74BFB7B681B7A03F06E
:108A40007F03DBB218460837BD4680BD2C2F0208D5
:108A50008801020880B586B000AF78600B46FB70D5
:108A600000233B6100237B610023FB60FB781846F9
:108A7000FFF75AFEF8607B68002B02D0FB68002BE2
:108A800001D1002335E0FBF7A5FBB860FEF710FB32
:108A90000346002B09D019491948FFF7D5F940F2D0
:108AA000662216491748FFF713FBB868FBF796FBD9
:108AB00000F0B4FAFB685B687B6112E07B690C3BF9
:108AC0003B613B6908227968184616F093F9034622
:108AD000002B03D100F0BAFA3B690AE07B691B68FE
:108AE0007B61FB6804337A699A42E7D100F0AEFA01
:108AF000002318461837BD4680BD00BF402F02082E
:108B00009C010208C401020880B483B000AF786001
:108B10007B687A685A607B685A687B681A6000BF15
:108B20000C37BD465DF8047B704780B483B000AF5E
:108B3000786039607B681B683A685A607B681A689D
:108B40003B681A607B683A681A603B687A685A60CA
:108B500000BF0C37BD465DF8047B704780B483B01E
:108B600000AF786039607B685B683A681A607B6840
:108B70005A683B685A607B683A685A603B687A6812
:108B80001A6000BF0C37BD465DF8047B704780B4A7
:108B900083B000AF78607B681B687A6852685A605F
:108BA0007B685B687A6812681A607B687A685A60CA
:108BB0007B685A687B681A6000BF0C37BD465DF859
:108BC000047B704780B483B000AF78607B681B681B
:108BD0007A689A420CBF01230023DBB218460C3797
:108BE000BD465DF8047B704780B584B000AF786007
:108BF0007B68002B04D162221C491D48FFF768FAEC
:108C00007B689B6A1B78232B11D17B68DB691A4632
:108C10007B689B6A9A420AD97B68DB691A467B6843
:108C20009B6A19467B68DB6A0B449A420BD97B68C6
:108C300019461048FFF708F9FBF7CCFAF860FB6813
:108C4000002BFCD10DE07B68DB691A467B689B6AD0
:108C500020339A4205D87B6819460748FFF7F4F895
:108C6000FFE700BF1037BD4680BD00BF502F020890
:108C7000F4010208080202082402020880B584B048
:108C800000AF78600A4B1B68184601F077FE034678
:108C9000013BFB60074AFB6852F83330143BBB6072
:108CA0007B68FA681A60BB6818461037BD4680BDFD
:108CB000781100207810002080B582B000AF0D4BF5
:108CC00000221A8000237B6009E07B68DB000A4AEF
:108CD00013441846FFF718FF7B6801337B607B68FD
:108CE0001F2BF2DD054B00221A6000BF0837BD467E
:108CF00080BD00BF7C11002078100020781100207A
:108D000080B582B000AF3B461846FFF7B7FF7860EA
:108D1000094A7B681360786800F048F97B68032291
:108D200083F834207B681C331846FBF7A0FA00BF99
:108D30000837BD4680BD00BF8011002080B586B0D9
:108D400000AFFBF747FAF8605C4BB3F90030002B3B
:108D500040F0AD805A4B1B68002B00F0A880002328
:108D60003B613B1D1846FFF789FF7861554B1B6837
:108D700093F8343003F00703032B2CD1514B1B68BD
:108D800093F835301A467B689A4203D24D4B1B68E4
:108D90007B6115E04B4B1B6893F835301A467B68B6
:108DA0009A420BD1474B1B6893F8343003F0080309
:108DB000002B03D1434B1B687B6101E001233B6126
:108DC000404B1B6893F834203E4B1B6822F008028E
:108DD000D2B283F834203B4B1B687A699A4251D057
:108DE0007B68DAB2384B1A70364B1B68BB60354A69
:108DF0007B691360354B1B68002B04D0334B1B6819
:108E00007969B86898473B69002B02D0B86800F0D0
:108E100063F8786900F0CAF87B6993F834305BB284
:108E200023F007035BB243F003035BB2DAB27B6962
:108E300083F834207869FFF7D7FE254B1B78DBB227
:108E4000002B14D1234B1B68002B03D0214B1B6834
:108E5000B8689847BB681C331A467B691C331946AF
:108E60001046FBF7BEF9F868FBF7B8F923E0BB68DA
:108E70001C3318467B691C3319467B69BA68FBF7BB
:108E8000B0F914E00F4B1B68184600F08FF80D4B3B
:108E90001B6893F834305BB223F007035BB243F0F6
:108EA00003035AB2074B1B68D2B283F83420F86828
:108EB000FBF794F900BF1837BD4680BD7C11002038
:108EC00078110020801100208411002088110020DA
:108ED0001C0F00208C11002080B584B000AF78609A
:108EE0007B68002B05D140F26B122B492B48FFF712
:108EF000EFF8FBF76FF9F860294B1B687A689A4224
:108F00000ED17B6893F834305BB223F007035BB279
:108F100043F003035BB2DAB27B6883F8342034E0B9
:108F20007B6893F834305BB223F007035BB243F005
:108F300002035BB2DAB27B6883F834207B6893F873
:108F4000343003F00803002B0CD07B6893F83530E5
:108F5000DB00144A1A447B68143319461046FFF7A5
:108F6000FDFD0BE07B6893F83530DB000D4A1A44B9
:108F70007B68143319461046FFF7D7FD7B689A6B60
:108F8000094B1B681343084A1360F868FBF726F97E
:108F900000BF1037BD4680BD682F0208F4010208EB
:108FA00080110020781000207811002080B584B056
:108FB00000AF78607B68002B05D140F29F12134907
:108FC0001348FFF785F8FBF705F9F8607B68143361
:108FD0001846FFF7DCFD7B6893F83530DB000D4A5F
:108FE00013441846FFF7EEFD0346002B07D07B68BD
:108FF0009B6BDA43084B1B681340074A1360F86801
:10900000FBF7ECF800BF1037BD4680BD842F020887
:10901000F4010208781000207811002080B582B099
:1090200000AFFBF7D7F87860074BB3F900309BB27D
:1090300001339BB21AB2044B1A807868FBF7CEF862
:1090400000BF0837BD4680BD7C11002080B582B0CE
:1090500000AFFBF7BFF87860104BB3F900309BB25C
:10906000013B9BB21AB20D4B1A800C4BB3F9003086
:10907000002B0CDC094B00221A807868FBF7AEF855
:10908000074B1B68002B05D0FFF758FE02E07868FD
:10909000FBF7A4F800BF0837BD4680BD7C11002057
:1090A0008011002080B400AF044BB3F900309BB2B4
:1090B0001846BD465DF8047B704700BF7C11002058
:1090C00080B483B000AF78607B687A685A607B6850
:1090D0005A687B681A6000BF0C37BD465DF8047B98
:1090E000704780B483B000AF78607B681B687A6893
:1090F00052685A607B685B687A6812681A607B689D
:109100007A685A607B685A687B681A6000BF0C37BF
:10911000BD465DF8047B704780B582B000AF00F0BB
:1091200029F97860FBF756F838607868FFF73EFF5A
:109130007B685833184600F0DDFD7B68012283F818
:1091400034207868FCF76AFA3868FBF747F8FFF7CD
:10915000F5FD00BF0837BD4680BD000080B584B076
:1091600000AF78607B68FB60FB68002B04D18B222A
:1091700019491A48FEF7ACFFFB6893F8343003F046
:109180000403002B04D18C2213491548FEF7A0FFDD
:10919000F868FFF745FC0346012B04D08D220E49E9
:1091A0001048FEF795FFFBF715F8B860FB686FF005
:1091B00073021A63FB6814331846FFF792FFF868CE
:1091C000FFF78AFEB868FBF709F8FFF7B7FD00BFA5
:1091D0001037BD4680BD00BFA02F02085C02020808
:1091E00070020208B402020880B586B002AFF860CF
:1091F000B9607A603B60FB6814331846FFF760FF84
:10920000FB687A681A62FB683A685A62FB68BA6956
:109210009A62FB68FA69DA62FB68986AFB68DB6A43
:109220001A462321FDF7CAFFFB68186AFB68596AD2
:10923000FB689A6AFB68DB6A043B1A442C4B01F01A
:1092400027F90246FB68DA6197F820301F2B04D912
:10925000C62228492848FEF73BFFFB6897F82020E4
:1092600083F83620FB6897F8202083F83520FB68C8
:1092700000229A63FB683C331846FFF721FFFB6826
:1092800000225A64FB6800229A64FB68002283F87B
:109290004C20FB687A6A1A65FB687A6A5A65FB6833
:1092A00000221A63FB68002283F83420FB68002246
:1092B000C3F88420FB680022C3F88820FB6803F110
:1092C0005800F9680023019300230093FB680B4AC0
:1092D00000F0D2FC0A4B1B68002B03D0084B1B6824
:1092E000F8689847002318461037BD4680BD00BF78
:1092F00019910008B02F0208F80202085D910008D9
:109300009811002080B588B004AFF860B9607A6029
:109310003B60FB68002B05D14FF4A572124913483E
:10932000FEF7D6FEBB69002B05D140F24B120E4969
:109330000F48FEF7CDFEBA680121F868FFF718FA6A
:109340007B6A039397F820300293FB690193BB6912
:1093500000933B687A68B968F868FFF745FF0346F1
:1093600018461037BD4680BDC02F02085C020208B7
:109370001C03020880B400AF034B1B681846BD46AF
:109380005DF8047B704700BF8011002080B582B07B
:1093900000AF78607B68002B05D140F27D121C493C
:1093A0001C48FEF795FE7B6893F8343003F0070302
:1093B000002B05D04FF4BF7215491748FEF788FE01
:1093C0007868FFF72DFB0346012B05D040F27F1292
:1093D0000F491248FEF77CFE7B6893F835301A4639
:1093E000012393401A467B689A637B68042283F8C2
:1093F0003420786800F028FBFFF7BCFF0346002B01
:1094000001D0FFF79BFC002318460837BD4680BDFE
:10941000D02F02085C02020834030208B4020208DA
:1094200080B584B000AF78607B68002B05D14FF425
:10943000D4722E492E48FEF74BFE7868FFF7F0FAFB
:109440000346012B05D040F2A91228492948FEF70E
:109450003FFE7868FFF7C6FA0346002B05D14FF4AC
:10946000D57222492448FEF733FE7B6893F83430E6
:1094700003F00703012B01D1002332E07B6893F84E
:10948000343003F00703002B02D07868FFF78EFD1D
:10949000FAF7A0FEF8607B685833184600F02AFC03
:1094A0007B68012283F834207B685B6C002B11D031
:1094B0007B685B6C1846FFF7B3FA0346032B09D1B0
:1094C0007B685B6CBB607968B868FCF7E9FC7B681B
:1094D00000225A647868FCF7A1F8F868FAF77EFE73
:1094E000002318461037BD4680BD00BFE42F020898
:1094F0005C020208B40202086C03020880B58AB05C
:1095000004AFF860B9607A603B60F9680120FFF74A
:10951000BFF978617B69002B01D100231BE038681B
:10952000FEF75EFD38613B69002B04D17869FFF7D7
:109530001BFA00230FE07B6A039397F82030029315
:109540003B6801933B6900937B68BA68F968786966
:10955000FFF74AFE7B6918461837BD4680BD0000FC
:1095600080B584B000AF78607B68002B05D140F2F5
:1095700019222E492E48FEF7ABFD7868FFF750FA06
:109580000346012B05D040F21A2228492948FEF74C
:109590009FFD7868FFF726FA0346002B05D040F2BE
:1095A0001B2222492448FEF793FD7B6893F8343050
:1095B00003F00703012B01D1002332E07B6893F80D
:1095C000343003F00703002B02D07868FFF7EEFC7D
:1095D000FAF700FEF8607B685833184600F08AFB03
:1095E0007B68012283F834207B685B6C002B11D0F0
:1095F0007B685B6C1846FFF713FA0346032B09D10F
:109600007B685B6CBB607968B868FCF749FC7B6879
:1096100000225A647868FCF701F8F868FAF7DEFD72
:10962000002318461037BD4680BD00BFF82F020842
:109630005C020208B40202089C03020880B58AB0EA
:1096400000AF78607B68002B02D16FF0150396E0C5
:10965000FFF790FE78627B6A002B05D140F2722200
:1096600049494A48FEF734FD786AFFF7D9F90346BD
:10967000012B05D040F2732243494548FEF728FDEF
:10968000FDF72AFD3862FAF7A5FDF861FFF70AFD3C
:109690000346002B09D03C493E48FEF7D5FB40F27B
:1096A000762239493C48FEF713FD3B6A012B09D16C
:1096B00035493A48FEF7C8FB40F27622324936482F
:1096C000FEF706FDFAF786FDB861FFF753FE034685
:1096D000002B09D12C493248FEF7B6FB40F2762226
:1096E00029492D48FEF7F4FCFAF774FD7861FDF77F
:1096F000DFFC0346002B09D023492A48FEF7A4FBD0
:1097000040F2762220492448FEF7E2FC7869FAF715
:1097100065FDB869FAF762FDF869FAF75FFDFAF7D7
:1097200059FD38617B6A00221A630021786A00F0D3
:109730001DF9F860FB68002B1DD17B6A58333A1D78
:109740000021184600F080FC7B6A5833184600F070
:1097500019FB3869FAF742FD7B6A6FF003021A635E
:10976000FFF7ECFA7B6A1B6B13F1740F06D17B6A6F
:1097700000221A6302E03869FAF730FDFB681846E8
:109780002837BD4680BD00BF0C3002085C020208CD
:10979000B4020208D80302080404020808040208FC
:1097A000300402086804020880B582B000AF786017
:1097B0007868FFF743FF034618460837BD4680BD6B
:1097C00080B584B000AF78607868FBF711FEF86070
:1097D000F868FFF733FF034618461037BD4680BDD3
:1097E00080B586B000AFF860B9607A60FB68002B86
:1097F00005D14FF4547237493748FEF769FCF868D1
:10980000FFF70EF90346012B05D040F251323149E2
:109810003248FEF75DFCBB68022B09D0BB68022B07
:1098200052DCBB68002B34D0BB68012B36D04BE038
:10983000FAF7D0FC3861FB6893F8343003F0070383
:10984000022B14D1F868FFF7B1FB7B681A78FB682C
:1098500083F83520FB6893F835301A46012393408E
:109860001A46FB689A63F868FFF736FB0DE07B68E1
:109870001A78FB6883F83520FB6893F835301A4670
:10988000012393401A46FB689A633869FAF7A6FCED
:109890001BE0F868FFF77AFD034617E06FF0150349
:1098A0007B61F868FFF79EF80346012B04D1F86846
:1098B000FFF7B6FD786103E0F868FFF751FE7861C5
:1098C000FFF73CFA7B6901E000BF00231846183718
:1098D000BD4680BD1C3002085C020208B4020208CA
:1098E00080B584B000AF786039600723FB737B6874
:1098F000002B05D140F2B33219491A48FEF7E8FBB4
:109900003B68022B0FD03B68022B0FDC3B68002B1F
:1099100003D03B68012B03D008E00423FB730CE069
:109920000623FB7309E00723FB7306E04FF4707214
:109930000B490D48FEF7CCFB00BF7B6893F8343031
:109940005BB223F007035AB297F90F3013435BB2AF
:10995000DAB27B6883F8342000BF1037BD4680BD83
:10996000303002085C0202080404020880B584B0AA
:1099700000AF786039607B68002B05D14FF47772B7
:109980002C492D48FEF7A4FB7868FFF749F80346F9
:10999000012B05D040F2DD3226492848FEF798FB1E
:1099A000FFF7E8FC02467B68934205D040F2DE32C6
:1099B00020492348FEF78CFB7B6893F8343003F092
:1099C0000703FB60FB68022B05D0FB68032B02D06A
:1099D0006FF0FE0329E0FAF7FDFBB860FB68032B8C
:1099E0000BD1FFF7C7FC02467B68934205D040F2DB
:1099F000EE3210491248FEF76BFB7868FFF7D6FA93
:109A000039687868FFF76CFF7B685833184600F0B8
:109A1000CFFAB868FAF7E2FB0A4B1B68002B03D0B9
:109A2000084B1B6878689847002318461037BD46D6
:109A300080BD00BF4C3002085C020208B40202087C
:109A4000A00402089011002080B584B000AF7860B7
:109A50007B68002B05D140F21B421D491D48FEF7D3
:109A600037FB7868FEF7DCFF0346012B05D040F298
:109A70001C4217491848FEF72BFB7B6893F83430DB
:109A800003F00403002B02D16FF0FE031BE0FAF792
:109A9000A1FBF8607B6814331846FFF722FB7B6854
:109AA0005833184600F084FAF868FAF797FB78689C
:109AB000FFF712FA094B1B68002B03D0074B1B68FA
:109AC00078689847002318461037BD4680BD00BF10
:109AD000683002085C020208B402020894110020F7
